:020000040000FA
:100000000206C0E533146011146015146016146004
:100010001A2404701AC2918002D291C292C2932211
:10002000C2918002D291D292C29322C2918002D216
:0A00300091C292D29322E4F5A922B6
:10003B0002074C7532811208737533051200037574
:10004B002F037530E80207D1020541020417E8645B
:10005B0080F8E933E83360110460F0ED33EC337072
:10006B0009E8FCE9FDEAFEEBFF220460DED3EB9F1F
:10007B00EA9EE99DE8C2E78CF0C2F795F0400CE8E8
:10008B00CCF8E9CDF9EACEFAEBCFFB1203E285D03F
:10009B00F05804700320D5B3E80470075002B2D5B2
:1000AB0002042192D5EC0460F7E4CCC0E0C398F8CD
:1000BB00603B94186008400DD0E0FB0203F9E4FBB1
:1000CB00FAC9FC8028E830E406E4C9FBE4CAFCE882
:1000DB0030E305E4C9CACBFCE854076010F8C3E968
:1000EB0013F9EA13FAEB13FBEC13FCD8F130F52FF1
:1000FB00C3E49CFCEF9BFFEE9AFEED99FDD0E0FB79
:10010B00EF4E4D4C701222DB0302041EEC2CFCEF65
:10011B0033FFEE33FEED33FDED30E7EB0203F9EF8A
:10012B002BFFEE3AFEED39FDD0E0FB50130BBB007D
:10013B0003020421ED13FDEE13FEEF13FFEC13FC92
:10014B000203F9EC4D6011E8497017ED33EC330401
:10015B00600DE4FCFFFEFD22E933E8330470F80286
:10016B0004171203E258046009E4CC2481500628DA
:10017B00500902042128400302041EC0E0EB4A7020
:10018B0044B98006D0E0FB02040DEF4E701CBD801D
:10019B0008EBFFEAFEE9FD80EBE98DF0A4FEE5F04C
:1001AB00020237E9CDF9EAFEEBFFEF89F0A4FCE59B
:1001BB00F0CE89F0A42EFFE435F0CD89F0A42DFE0E
:1001CB00E435F08067EF4E7005BD80D780C3EF8BB1
:1001DB00F0A4ACF0EE8BF0A42CFCE435F0F8EF8A35
:1001EB00F0A42CE5F038FCE433CB8DF0A42CFCE52B
:1001FB00F03BF8EE8AF0A42CFCE5F038F8E433CFB2
:10020B0089F0A42CFCE5F038CF3400CE89F0A42F74
:10021B00FFE5F03EFEE433C98DF0A42EFEE5F03988
:10022B00CD8AF0A42FFFE5F03EFEE43DFD33D0E098
:10023B00FB50070BBB000F020421EC2CFCEF33FF30
:10024B00EE33FEED33FD0203F9020421EC5D046095
:10025B0005E8590470030204171203E2580460F610
:10026B00EC4860F2EC7004FDFEFF22C860DB2481D9
:10027B00C85009C3986002500602041E9850CAF574
:10028B0082E9294B4A7005AB8202040D75F0007CA4
:10029B001A7880C3EF9BEE9AED99400DC3EF9BFF4D
:1002AB00EE9AFEED99FDE842F0DC23ACF0D0E0FFD6
:1002BB00D0E0FED0E0FDAB8220E7101BEB60BAEC88
:1002CB002CFCEF33FFEE33FEED33FD0203F9E803B5
:1002DB00F830E705C0F075F000EF2FFFEE33FEEDC1
:1002EB0033FD40B830E7C280AA74F8CC6480CCC828
:1002FB006480C8F58204604FC3EB9FF5F0EA9E4221
:10030B00F0E99D42F0E89C45F0603C501DE5825FB2
:10031B00FFE582D313CB5BCBF42B5582FB50280A22
:10032B00BA002409B9002008801DE5825BFBE58239
:10033B00D313CF5FCFF4C3132F5582FF50090EBEDB
:10034B0000050DBD00010CC3EB9FF5F0EA9E42F0DA
:10035B00E99D42F0E89C45F06007CC4820E701B3EB
:10036B00EC2275F020800E75F010800575F0087D7D
:10037B00007E007F003392D530D5031204FAEC33A4
:10038B004010EF33FFEE33FEED33FDEC33FCD5F0D5
:10039B00ED22E5F0247EA2D513CC92E7CDCEFF2241
:1003AB00EDD2E7CD33EC3392D524814006E4FFFE4A
:1003BB00FDFC22FCE4CFCECDCC24E0501174FF80A9
:1003CB00EDC3CC13CCCD13CDCE13CECF13CF047046
:1003DB00F030D5DE0204FAE9D2E7C933E833F892FC
:1003EB00D5EDD2E7CD33EC33FC5002B2D522EC3055
:1003FB00E7100FBF000C0EBE00080DBD00040BEB89
:10040B006014A2D5EB13FCED92E7FD2274FFFCFD0B
:10041B00FEFF22E480F8A2D574FF13FC7D80E480FC
:10042B00EF75F008758200EF2FFFEE33FECD33CD65
:10043B00CC33CCC58233C5829BED9AEC99E582987F
:10044B00400CF582EE9BFEED9AFDEC99FC0FD5F07E
:10045B00D6E4CEFBE4CDFAE4CCF9A88222B800C1F5
:10046B00B90059BA002DEC8BF084CFCECDFCE5F062
:10047B00CBF97818EF2FFFEE33FEED33FDEC33FCA9
:10048B00EB33FB10D703994004EB99FB0FD8E5E452
:10049B00F9FA227818EF2FFFEE33FEED33FDEC3334
:1004AB00FCC933C910D7059BE99A4007EC9BFCE9C3
:1004BB009AF90FD8E0E4C9FAE4CCFB2275F010EFFF
:1004CB002FFFEE33FEED33FDCC33CCC833C810D742
:1004DB00079BEC9AE899400AED9BFDEC9AFCE89996
:1004EB00F80FD5F0DAE4CDFBE4CCFAE4C8F922C37B
:1004FB00E49FFFE49EFEE49DFDE49CFC22E8600F7C
:10050B00ECC313FCED13FDEE13FEEF13FFD8F1223A
:10051B00D083D082F8E4937012740193700DA3A36F
:10052B0093F8740193F5828883E473740293686083
:10053B00EFA3A3A380DFC0E0C0F0C083C082C0D014
:10054B0075D000C000C001C002C003C004C005C00C
:10055B0006C007C2EDE50F450E7065850D13850CC2
:10056B0012850B11850A10F50E750F10F50DF50C94
:10057B00F50BF50AE513248DFFE512348AFEE51120
:10058B0034FFFDE51034FFFCE47B71FAF9F812043B
:10059B00688F248E238D228C218F18E513FFE48F17
:1005AB0014AE12AD11AC107808120508E48F157853
:1005BB00101208F0E48F1678181208F08F17802F9E
:1005CB00AFBDEFF51AE5BEF519E5BE540FFEAFBD95
:1005DB00E4FCFDE50D2FF50DE50C3EF50CED350BB3
:1005EB00F50BEC350AF50AE50F150F7002150ED059
:1005FB0007D006D005D004D003D002D001D000D054
:10060B00D0D082D083D0F0D0E0321208AD1209D115
:10061B003000FDC200E52C12051B064701064C02FB
:10062B00065103065610065B20066B21068F220629
:10063B00A02306B12406BA250000061B7529AE803F
:10064B00CF7529C080CA7529EE80C585182980C051
:10065B001209A64006852D3312000385332980B07D
:10066B00E51BB40205852D30800FD3E51B64809408
:10067B00824009852D30852E2F1207D18530298593
:10068B002F2A808C1209A64006852D2F1207D185A3
:10069B002F2902061B1209A64006852D321208735C
:1006AB0085322902061B12095F85312902061B853B
:1006BB00FC2902061B787FE4F6D8FD75813302070F
:1006CB0007020615E493A3F8E493A34003F6800115
:1006DB00F208DFF48029E493A3F85407240CC8C371
:1006EB0033C4540F4420C8834004F456800146F6AB
:1006FB00DFE4800B010204081020408090094FE4D6
:10070B007E019360BCA3FF543F30E509541FFEE408
:10071B0093A360010ECF54C025E060A840B8E493CA
:10072B00A3FAE493A3F8E493A3C8C582C8CAC5830C
:10073B00CAF0A3C8C582C8CAC583CADFE9DEE78091
:10074B00BEC0E0C0D075D000C00020C26AE5C05466
:10075B00F0602424F0603F24D0604124F0604C24EE
:10076B0030704CC2C5750801750901E5C230E00354
:10077B001208FBD2C18046E509C39403742B500BBE
:10078B002509F8A6C20509D2C180072509F8A6C21A
:10079B00D200051B8027C2C4D200802130C11EE5C8
:1007AB0008D3940350171208FB8012C2C4800E5357
:1007BB00C17F43C1808000C2C5C2C4D2C1C2C0D0F8
:1007CB0000D0D0D0E032AC2FE4120377E4FBFA79FF
:1007DB0080784312014EC004C005C006C007AC3080
:1007EB00E4120377D003D002D001D00012005D8F4A
:1007FB00288E278D268C257DFA7C4412097C1202CB
:10080B00F4600D400BE4F528F5277526FA752544A1
:10081B007D427C4312097C12014EE4FBFA79FA7893
:10082B00441202571203AB8FFC22208304E4FC809A
:10083B00027C01208204E4FD80027D01209604E409
:10084B00FE80027E01209504E4FF80027F01ED25EE
:10085B00E04CFBEE25E025E04BFBEF33333354F854
:10086B004B441025E0F5D722E53230E70612090696
:10087B0053327FE53220E204D2868002C286E53213
:10088B005402FFBF010775A50EC290801175A50F0D
:10089B00E53230E0047F018002E4FF12099D533200
:1008AB0057221209AE1209B51209BC12099312098B
:1008BB003F1209D71200361208D712091C1209C3AE
:1008CB0012098812096F12092F0209CAAF885388BF
:1008DB00AF758C7F758AFF758BC8EF5440FEEF5454
:1008EB00104E428822AF13AE12AD11AC10020508A8
:1008FB0074282508F8E6F5C2050822C285E4FFFE38
:10090B00000FBF00010EBE27F7BF10F4D285D286B1
:10091B0022E5C8540453C8FB75CBFF75CA3443C8D2
:10092B000442C82275D7F075D6FF75AC8053C1FC55
:10093B0043C1812275BB1075BC0975B38153E8F8AF
:10094B0043E8C222011B00040A00000000020E0053
:10095B0010C10000E4F531208703433101209403DB
:10096B004331202253F77F75DA4275FB8075FC808B
:10097B0022E4FFFEAB28AA27A926A82522C2DE75F2
:10098B00D908759601D2DE2275E34075E10475E254
:10099B000122EF6003D29022C29022D3E51B648028
:1009AB009481227597DE7597AD2275A47075D4EC82
:1009BB002275A50F75D51F22758E0D758921227590
:1009CB00E60975A8802212003E02083575D11C225B
:00000001FF
