:020000040000FA
:1000000002020B7597DE7597AD223202000A1200CC
:100010000312003212046B12045612042E120473DF
:1000200012046F1203D912003E12045D12041E0264
:09003000046475A41075D4FF22CC
:10003B00020297E5C8540453C8FB75CBFF75CA344D
:06004B0043C80442C82274
:1000530002013775F008758200EF2FFFEE33FECDF6
:1000630033CDCC33CCC58233C5829BED9AEC99E575
:100073008298400CF582EE9BFEED9AFDEC99FC0F05
:10008300D5F0D6E4CEFBE4CDFAE4CCF9A88222B8CD
:1000930000C1B90059BA002DEC8BF084CFCECDFC52
:1000A300E5F0CBF97818EF2FFFEE33FEED33FDECDF
:1000B30033FCEB33FB10D703994004EB99FB0FD8C8
:1000C300E5E4F9FA227818EF2FFFEE33FEED33FD66
:1000D300EC33FCC933C910D7059BE99A4007EC9B65
:1000E300FCE99AF90FD8E0E4C9FAE4CCFB2275F0F5
:1000F30010EF2FFFEE33FEED33FDCC33CCC833C806
:1001030010D7079BEC9AE899400AED9BFDEC9AFC0B
:10011300E899F80FD5F0DAE4CDFBE4CCFAE4C8F9BA
:1001230022E8600FECC313FCED13FDEE13FEEF1397
:10013300FFD8F122C0E0C0F0C083C082C0D075D028
:1001430000C000C001C002C003C004C005C006C097
:1001530007C2EDE50F450E7065850D13850C1285FD
:100163000B11850A10F50E750F10F50DF50CF50B37
:10017300F50AE513248DFFE512348AFEE51134FFF9
:10018300FDE51034FFFCE47B71FAF9F81200928F5D
:100193001E8E1D8D1C8C1B8F18E513FFE48F14AE70
:1001A30012AD11AC107808120124E48F15781012E7
:1001B30003F2E48F1678181203F28F17802FAFBD66
:1001C300EFF51AE5BEF519E5BE540FFEAFBDE4FC2D
:1001D300FDE50D2FF50DE50C3EF50CED350BF50B9F
:1001E300EC350AF50AE50F150F7002150ED007D08E
:1001F30006D005D004D003D002D001D000D0D0D097
:1002030082D083D0F0D0E032787FE4F6D8FD7581D8
:100213002802025202031AE493A3F8E493A34003CF
:10022300F68001F208DFF48029E493A3F85407244D
:100233000CC8C333C4540F4420C8834004F456800D
:100243000146F6DFE4800B01020408102040809091
:10025300043EE47E019360BCA3FF543F30E50954A0
:100263001FFEE493A360010ECF54C025E060A840B5
:10027300B8E493A3FAE493A3F8E493A3C8C582C8AC
:10028300CAC583CAF0A3C8C582C8CAC583CADFE981
:10029300DEE780BEC0E0C0D075D000C00020C268D9
:1002A300E5C054F0602424F0603D24D0603F24F086
:1002B300604A2430704AC2C5750801750901E5C258
:1002C30030E0031203FDD2C18044E509C3940474F2
:1002D30024500B2509F8A6C20509D2C1803025098F
:1002E300F8A6C2D2008027C2C4D200802130C11E2A
:1002F300E508D3940450171203FD8012C2C4800E84
:1003030053C17F43C1808000C2C5C2C4D2C1C2C031
:10031300D000D0D0D0E03212000E12044B12036989
:100323003000FDC200E52524E06020146022146043
:100333002724D2600F240E70E77521017522017501
:10034300232C80DCAF261203A780D585182180D00B
:10035300851A2185192280C88514218515228516C1
:100363002385172480BA208304E4FC80027C0120C7
:100373008204E4FD80027D01208104E4FE80027E8C
:1003830001208004E4FF80027F01ED25E04CFBEEB9
:1003930025E025E04BFBEF33333354F84B44102572
:1003A300E0F5D722EF146011146015146016146081
:1003B3001A2404701AC2918002D291C292C293226B
:1003C300C2918002D291D292C29322C2918002D270
:1003D30091C292D29322AF885388AF758C7F758A6E
:1003E300FF758BC8EF5440FEEF54104E428822AF86
:1003F30013AE12AD11AC1002012474202508F8E6E7
:10040300F5C2050822C285E4FFFE000FBF00010EFE
:10041300BE27F7BF10F4D285D2862275D7F075D6E2
:10042300FF75AC8053C1FC43C1812275BB1075BC01
:100433000975B38153E8F843E8C222040A000000B7
:1004430000020E0010C100001204081204777F0599
:100453000203A775E34075E10422758E0D758921AA
:100463002275E60975A8802275D51F22E4F5A92215
:0704730075D11C22D290227A
:00000001FF
