:020000040000FA
:10000000020370E533146011146015146016146057
:100010001A2404701AC2918002D291C292C2932211
:10002000C2918002D291D292C29322C2918002D216
:0A00300091C292D29322E4F5A922B6
:10003B000203FC75328112051E7533051200037520
:10004B002F037530E80204810201EAE88FF0A4CC9B
:10005B008BF0A42CFCE98EF0A42CFC8AF0EDA42CE4
:10006B00FCEA8EF0A4CDA8F08BF0A42DCC3825F0B3
:10007B00FDE98FF0A42CCD35F0FCEB8EF0A4FEA99E
:10008B00F0EB8FF0A4CFC5F02ECD39FEE43CFCEAAB
:10009B00A42DCE35F0FDE43CFC2275F008758200F2
:1000AB00EF2FFFEE33FECD33CDCC33CCC58233C532
:1000BB00829BED9AEC99E58298400CF582EE9BFEC3
:1000CB00ED9AFDEC99FC0FD5F0D6E4CEFBE4CDFA1E
:1000DB00E4CCF9A88222B800C1B90059BA002DECC2
:1000EB008BF084CFCECDFCE5F0CBF97818EF2FFF5A
:1000FB00EE33FEED33FDEC33FCEB33FB10D7039902
:10010B004004EB99FB0FD8E5E4F9FA227818EF2FAE
:10011B00FFEE33FEED33FDEC33FCC933C910D705CD
:10012B009BE99A4007EC9BFCE99AF90FD8E0E4C9EC
:10013B00FAE4CCFB2275F010EF2FFFEE33FEED331C
:10014B00FDCC33CCC833C810D7079BEC9AE8994049
:10015B000AED9BFDEC9AFCE899F80FD5F0DAE4CDAB
:10016B00FBE4CCFAE4C8F922EB9FF5F0EA9E42F0EF
:10017B00E99D42F0E89C45F022E8600FECC313FCCC
:10018B00ED13FDEE13FEEF13FFD8F122D083D082D7
:10019B00F8E4937012740193700DA3A393F8740198
:1001AB0093F5828883E4737402936860EFA3A3A32F
:1001BB0080DFEC8EF0A4CCC5F0CCCDF8EFA4CEC58F
:1001CB00F02DFDE43CFCE8A42EC8C5F03DFDE43C5D
:1001DB00FCEFA4FFE5F028FEE43DFDE43CFC22C06F
:1001EB00E0C0F0C083C082C0D075D000C000C00199
:1001FB00C002C003C004C005C006C007C2EDE50FB6
:10020B00450E7065850D13850C12850B11850A1033
:10021B00F50E750F10F50DF50CF50BF50AE513241E
:10022B008DFFE512348AFEE51134FFFDE51034FF36
:10023B00FCE47B71FAF9F81200E18F248E238D22F6
:10024B008C218F18E513FFE48F14AE12AD11AC1097
:10025B007808120184E48F15781012059BE48F1631
:10026B00781812059B8F17802FAFBDEFF51AE5BEDF
:10027B00F519E5BE540FFEAFBDE4FCFDE50D2FF502
:10028B000DE50C3EF50CED350BF50BEC350AF50ACF
:10029B00E50F150F7002150ED007D006D005D00450
:1002AB00D003D002D001D000D0D0D082D083D0F0F8
:1002BB00D0E03212055812066E3000FDC200E52C5C
:1002CB0012019702ED0102EF0202F10302F6100296
:1002DB00FB20032021034422035423036424000046
:1002EB00036A800280007529018074851829806F4C
:1002FB00120643401B852D33D3E533648094855020
:10030B0009C3E533648094805003753305120003F1
:10031B00853329804AE51BB40205852D30800FD328
:10032B00E51B648094824009852D30852E2F1204A5
:10033B0081853029852F2A80261206434006852D7C
:10034B002F120481852F2980161206434006852D16
:10035B003212051E8532298006120608853129E4E2
:10036B00F51B0202C4787FE4F6D8FD7581330203D6
:10037B00B70202BEE493A3F8E493A34003F6800113
:10038B00F208DFF48029E493A3F85407240CC8C3C4
:10039B0033C4540F4420C8834004F456800146F6FE
:1003AB00DFE4800B01020408102040809005F8E484
:1003BB007E019360BCA3FF543F30E509541FFEE45C
:1003CB0093A360010ECF54C025E060A840B8E4931E
:1003DB00A3FAE493A3F8E493A3C8C582C8CAC58360
:1003EB00CAF0A3C8C582C8CAC583CADFE9DEE780E5
:1003FB00BEC0E0C0D075D000C00020C26AE5C054BA
:10040B00F0602424F0603F24D0604124F0604C2441
:10041B0030704CC2C5750801750901E5C230E003A7
:10042B001205A6D2C18046E509C39403742B500B69
:10043B002509F8A6C20509D2C180072509F8A6C26D
:10044B00D200051B8027C2C4D200802130C11EE51B
:10045B0008D3940350171205A68012C2C4800E5302
:10046B00C17F43C1808000C2C5C2C4D2C1C2C0D04B
:10047B0000D0D0D0E032AF2F7E007C017D00120186
:10048B00BDA804A905AA06AB07E4FCFDFEEB2530CD
:10049B00F528EE3AF527ED39F526EC38F525E47F0E
:1004AB00D07E07AB28AA27A926A825D31201734013
:1004BB000BE47528D0752707F526F525E47FCAFED2
:1004CB00FDFCAB28AA27A926A825120056780B12EB
:1004DB0001848FFC22208304E4FC80027C012082B7
:1004EB0004E4FD80027D01209604E4FE80027E017F
:1004FB00209504E4FF80027F01ED25E04CFBEE2507
:10050B00E025E04BFBEF33333354F84B441025E03D
:10051B00F5D722E53230E7061205B153327FE532CB
:10052B0020E204D2868002C286E5325402FFBF016C
:10053B000775A50EC290801175A50FE53230E0044A
:10054B007F018002E4FF12063A5332572212064B08
:10055B001206521206591206301205E812067412D0
:10056B0000361205821205C5120660120625120608
:10057B00181205D8020667AF885388AF758C7F7544
:10058B008AFF758BC8EF5440FEEF54104E42882201
:10059B00AF13AE12AD11AC1002018474282508F80C
:1005AB00E6F5C2050822C285E4FFFE000FBF00017D
:1005BB000EBE27F7BF10F4D28522E5C8540453C8EA
:1005CB00FB75CBFF75CA3443C80442C82275D7F0FC
:1005DB0075D6FF75AC8053C1FC43C1812275BB102E
:1005EB0075BC0975B38153E8F843E8C222011B00BF
:1005FB00040A00000000020E0010C10000E4F531F7
:10060B002087034331012094034331202253F77F8A
:10061B0075DA4275FB8075FC8022C2DE75D90875D0
:10062B009601D2DE2275E34075E10475E20122EFFB
:10063B006003D29022C29022D3E51B648094812266
:10064B007597DE7597AD2275A47075D4EC2275A5E0
:10065B000F75D51F22758E0D7589212275E60975CB
:0D066B00A8802212003E0204E075D11C227E
:00000001FF
