:020000040000FA
:1000000002003E854C0A854D09120343AF0AAE0932
:100010001202A3500A12036FAF0AAE090202DB12EA
:10002000037B2212035A12037F1203831202F5127A
:100030000361120333020368C10000020268787F83
:10004000E4F6D8FD7581700200850201E3E493A314
:10005000F8E493A34003F68001F208DFF48029E47A
:1000600093A3F85407240CC8C333C4540F4420C8C6
:10007000834004F456800146F6DFE4800B0102045D
:100080000810204080900038E47E019360BCA3FFFC
:10009000543F30E509541FFEE493A360010ECF5492
:1000A000C025E060A840B8E493A3FAE493A3F8E481
:1000B00093A3C8C582C8CAC583CAF0A3C8C582C8ED
:1000C000CAC583CADFE9DEE780BE20C268E5C05446
:1000D000F0602424F0603D24D0603F24F0604A2486
:1000E00030704AC2C5750F01751001E5C230E003DA
:1000F00012034FD2C18044E510C394287448500BBA
:100100002510F8A6C20510D2C180302510F8A6C26D
:10011000D2008027C2C4D200802130C11EE50FD397
:100120009428501712034F8012C2C4800E53C17F0F
:1001300043C1808000C2C5C2C4D2C1C2C022750CF6
:1001400001854C0A854D09854E0B1203437E00E55F
:100150000A250BFFEE3509FE1202A3C0D0AF0AAE8E
:10016000091202A3D0F082F75024AF0B150BEF60F9
:100170001AAF0AAE091203217421250CF8A607054F
:100180000C050AE50A70E3050980DF02036F12031C
:100190007B22750C4F854C0A854D09854E0B120349
:1001A000437E00E50A250BFFEE3509FE1202A3C0CF
:1001B000D0AF0AAE091202A3D0F082F75021AF0BE4
:1001C000150BEF6017A80CE6FDAF0AAE091202C1CD
:1001D000050C050AE50A70E6050980E202036F12C4
:1001E000037B2275080112002312022A3000FDC28F
:1001F00000E54924FE601514601714601914601B93
:100200002405701C12036F75EF1280171200038013
:1002100012120192800D12013E80081203738003B6
:10022000120377E4F50DF50E80C2208304E4FC8010
:10023000027C01208204E4FD80027D01209604E41A
:10024000FE80027E01209504E4FF80027F01ED25FF
:10025000E04CFBEE25E025E04BFBEF33333354F865
:100260004B441025E0F5D722C0E0C0F0C083C08227
:10027000C0D075D000C000C001C002C003C004C01F
:1002800005C006C0071200CAD007D006D005D004AA
:10029000D003D002D001D000D0D0D082D083D0F013
:1002A000D0E032D3EF94FFEE941D7D0050027D012B
:1002B000C3EE94047F0040027F01EF5DC36001D371
:1002C00022A2AF920112030E438F0175FF8075EFDA
:1002D00002EDF0538FFEA20192AF22A2AF92011263
:1002E000030E438F0375FF8075EF02E4F0538FFC1C
:1002F000A20192AF22AF885388AF758C7F758AFFB9
:10030000758BC8EF5440FEEF54104E428822C2AFA6
:1003100075FF8075EF028F828E8375B7A575B7F173
:1003200022A2AF9201C2AF8F828E83E493FFA2011B
:1003300092AF2275D72875D6FF75AC8053C1FC43A8
:10034000C18122854A0D854B0EE4F54AF54B227496
:1003500020250FF8E6F5C2050F227597DE7597ADDB
:1003600022758E0D7589212275E60175A88022E41B
:10037000F521227521032275210222752181227522
:07038000E10422E4F5A922CB
:00000001FF
