:020000040000FA
:1000000002003E854C09854D0812036CAF09AE080D
:100010001202B1500A120036AF09AE0802030412F0
:10002000039C22C2AF75FF8075EF028F828E8375AD
:0A003000B7A575B7F122E4F521220F
:10003B000200CA787FE4F6D8FD7581700200850254
:10004B000151E493A3F8E493A34003F68001F20873
:10005B00DFF48029E493A3F85407240CC8C333C4FA
:10006B00540F4420C8834004F456800146F6DFE465
:10007B00800B01020408102040809003A8E47E014D
:10008B009360BCA3FF543F30E509541FFEE493A3D8
:10009B0060010ECF54C025E060A840B8E493A3FAEA
:1000AB00E493A3F8E493A3C8C582C8CAC583CAF076
:1000BB00A3C8C582C8CAC583CADFE9DEE780BEC054
:1000CB00E0C0D075D000C00020C26CE5C054F06019
:1000DB002124F0603A24D0603C24F0604E24307030
:1000EB004EC2C5750E01750F01D2C1E5C230E04D90
:1000FB00802DE50FC394287448500B250FF8A6C22A
:10010B00050FD2C18037250FF8A6C2D200802EC2B0
:10011B00C4D200802830C125E50ED39428501E741C
:10012B0020250EF8E6F5C2050E8012C2C4800E53D0
:10013B00C17F43C1808000C2C5C2C4D2C1C2C0D07E
:10014B0000D0D0D0E0327F01901DFFE493643D706E
:10015B0028E582158270021583E493B4C21BE582F5
:10016B00158270021583E493B4A50EE58215827097
:10017B00021583E493B41B011FEF700312040012EA
:10018B0002CF1202733000FDC200E54924FE601558
:10019B0014601714601914601B2405701C120036B0
:1001AB0075EF1280171200038012120222800D12BB
:1001BB0001CE80081203948003120398E4F50CF52A
:1001CB000D80C2750B01854C09854D08854E0A12B1
:1001DB00036C7E00E509250AFFEE3508FE1202B11D
:1001EB00C0D0AF09AE081202B1D0F082F75024AFE5
:1001FB000A150AEF601AAF09AE0812034A742125DB
:10020B000BF8A607050B0509E50970E3050880DF68
:10021B0002003612039C22750B4F854C09854D0845
:10022B00854E0A12036C7E00E509250AFFEE3508A0
:10023B00FE1202B1C0D0AF09AE081202B1D0F082EB
:10024B00F75021AF0A150AEF6017A80BE6FDAF09AF
:10025B00AE081202EA050B0509E50970E6050880F0
:10026B00E202003612039C22208304E4FC80027C11
:10027B0001208204E4FD80027D01209604E4FE80CF
:10028B00027E01209504E4FF80027F01ED25E04C06
:10029B00FBEE25E025E04BFBEF33333354F84B44B7
:1002AB003025E0F5D722D3EF94FFEE941D7D00505F
:1002BB00027D01C3EE94047F0040027F01EF5DC31A
:1002CB006001D3221203781203A012037F1203A43E
:1002DB0012031E12033712038612035C02038DA254
:1002EB00AF9201120023438F0175FF8075EF02ED72
:1002FB00F0538FFEA20192AF22A2AF920112002304
:10030B00438F0375FF8075EF02E4F0538FFCA2015E
:10031B0092AF22AF885388AF758C7F758AFF758B30
:10032B00C8EF5440FEEF54104E428822E5C85404E7
:10033B0053C8FB75CBFF75CA3443C80442C822A20D
:10034B00AF9201C2AF8F828E83E493FFA20192AF73
:10035B002275D77E75D6FF75AC8053C1FC43C18126
:10036B0022854A0C854B0DE4F54AF54B227597DE39
:10037B007597AD2275E34075E10422758E0D758975
:10038B00212275E60175A8802275210322752102B1
:10039B00227521812275A41022E4F5A922C1000047
:00000001FF
